:020000040800F2
:1000000000A0002071100008950F0008970F00084D
:10001000990F00089B0F00089D0F000800000000CA
:100020000000000000000000000000009F0F00081A
:10003000A10F000800000000A30F0008A50F000892
:10004000C1100008C1100008C1100008C11000084C
:10005000C1100008C1100008C1100008C11000083C
:10006000C1100008C1100008C1100008C11000082C
:10007000C1100008C1100008C1100008C11000081C
:10008000C1100008C1100008C1100008C11000080C
:10009000C1100008C1100008C1100008C1100008FC
:1000A000C1100008C1100008C1100008C1100008EC
:1000B000C1100008C1100008C1100008C1100008DC
:1000C000C1100008C1100008C1100008C1100008CC
:1000D000C1100008710F0008C1100008C11000080D
:1000E000C1100008C1100008C1100008C1100008AC
:1000F000C1100008C1100008C1100008C11000089C
:10010000000000000000000000000000C110000816
:10011000C1100008C1100008C1100008C11000087B
:10012000C1100008C1100008C1100008C11000086B
:10013000C1100008C110000800000000000000000D
:10014000C1100008C1100008C11000080000000024
:10015000000000000000000000000000000000009F
:100160000000000000000000C1100008C1100008DD
:10017000C1100008000000000000000000000000A6
:0801800000000000C11000089E
:1001C00030B490F800F020F007016FF0000C10F050
:1001D000070491F820F040F048804FF000046FF0E1
:1001E0000700D1E9002391F840F000F1080082FAFD
:1001F0004CF2A4FA8CF283FA4CF3A2FA8CF34BBBC8
:10020000D1E9022382FA4CF200F10800A4FA8CF240
:1002100083FA4CF3A2FA8CF3E3B9D1E9042382FA0E
:100220004CF200F10800A4FA8CF283FA4CF3A2FA23
:100230008CF37BB9D1E9062301F1200182FA4CF25B
:1002400000F10800A4FA8CF283FA4CF3A2FA8CF3C2
:10025000002BC6D0002A04BF04301A4612BAB2FAE4
:1002600082F200EBD20030BC7047D1E9002304F0E9
:100270000305C4F100004FEAC50514F0040F91F81E
:1002800040F00CFA05F562EA05021CBF63EA0503BB
:1002900062464FF00004AAE70000000000000000E2
:1002A00001F0FF01102A2BDB10F0070F08D010F827
:1002B000013B013A8B422DD010F0070F42B3F6D12B
:1002C000F0B441EA012141EA014122F007047FF044
:1002D00000070023F0E80256083C85EA010586EA9B
:1002E000010685FA47F5A3FA87F586FA47F6A5FAD7
:1002F00087F68EB9EED1F0BC01F0FF0102F00702E3
:1003000032B110F8013B013A83EA010313B1F8D18D
:100310000020704701387047002D06BF354603386E
:10032000073815F0010F07D1013015F4807F02BFA7
:10033000013015F4C03F0130F0BC0138704700BFF8
:10034000844641EA000313F003036DD1403A41D3E0
:1003500051F8043B40F8043B51F8043B40F8043B9F
:1003600051F8043B40F8043B51F8043B40F8043B8F
:1003700051F8043B40F8043B51F8043B40F8043B7F
:1003800051F8043B40F8043B51F8043B40F8043B6F
:1003900051F8043B40F8043B51F8043B40F8043B5F
:1003A00051F8043B40F8043B51F8043B40F8043B4F
:1003B00051F8043B40F8043B51F8043B40F8043B3F
:1003C00051F8043B40F8043B51F8043B40F8043B2F
:1003D000403ABDD2303211D351F8043B40F8043BCF
:1003E00051F8043B40F8043B51F8043B40F8043B0F
:1003F00051F8043B40F8043B103AEDD20C3205D3DF
:1004000051F8043B40F8043B043AF9D2043208D0D6
:10041000D2071CBF11F8013B00F8013B01D30B8848
:1004200003806046704700BF082A13D38B078DD026
:1004300010F003038AD0C3F10403D21ADB071CBFF8
:1004400011F8013B00F8013B80D331F8023B20F862
:10045000023B7BE7043AD9D3013A11F8013B00F89B
:10046000013BF9D20B7803704B7843708B78837023
:100470006046704781F0004102E000BF83F0004316
:1004800030B54FEA41044FEA430594EA050F08BF2F
:1004900090EA020F1FBF54EA000C55EA020C7FEAF3
:1004A000645C7FEA655C00F0E2804FEA5454D4EB70
:1004B0005555B8BF6D420CDD2C4480EA020281EA3A
:1004C000030382EA000083EA010180EA020281EA72
:1004D0000303362D88BF30BD11F0004F4FEA0131C4
:1004E0004FF4801C4CEA113102D0404261EB4101D3
:1004F00013F0004F4FEA03334CEA133302D0524259
:1005000063EB430394EA050F00F0A780A4F1010414
:10051000D5F1200E0DDB02FA0EFC22FA05F280184E
:1005200041F1000103FA0EF2801843FA05F3594134
:100530000EE0A5F120050EF1200E012A03FA0EFCB3
:1005400028BF4CF0020C43FA05F3C01851EBE371DD
:1005500001F0004507D54FF0000EDCF1000C7EEBFA
:1005600000006EEB0101B1F5801F1BD3B1F5001F38
:100570000CD349085FEA30004FEA3C0C04F1010457
:100580004FEA445212F5800F80F09A80BCF1004F80
:1005900008BF5FEA500C50F1000041EB045141EA02
:1005A000050130BD5FEA4C0C404141EB0101013CCB
:1005B00028BFB1F5801FE9D291F0000F04BF0146BA
:1005C0000020B1FA81F308BF2033A3F10B03B3F18C
:1005D00020020CDA0C3208DD02F1140CC2F10C021C
:1005E00001FA0CF021FA02F10CE002F11402D8BF7A
:1005F000C2F1200C01FA02F120FA0CFCDCBF41EA46
:100600000C019040E41AA2BF01EB0451294330BD14
:100610006FEA04041F3C1CDA0C340EDC04F11404F1
:10062000C4F1200220FA04F001FA02F340EA0300C8
:1006300021FA04F345EA030130BDC4F10C04C4F10E
:10064000200220FA02F001FA04F340EA03002946EE
:1006500030BD21FA04F0294630BD94F0000F83F438
:10066000801306BF81F480110134013D4EE77FEA1B
:10067000645C18BF7FEA655C29D094EA050F08BF67
:1006800090EA020F05D054EA000C04BF1946104648
:1006900030BD91EA030F1EBF0021002030BD5FEA8C
:1006A000545C05D14000494128BF41F0004130BDB4
:1006B00014F580043CBF01F5801130BD01F0004508
:1006C00045F0FE4141F470014FF0000030BD7FEA7B
:1006D000645C1ABF194610467FEA655C1CBF0B4676
:1006E000024650EA013406BF52EA033591EA030F8D
:1006F00041F4002130BD00BF90F0000F04BF002185
:10070000704730B54FF4806404F132044FF00005B7
:100710004FF0000150E700BF90F0000F04BF002130
:10072000704730B54FF4806404F1320410F0004596
:1007300048BF40424FF000013EE700BF42004FEA91
:10074000E2014FEA31014FEA02701FBF12F07F430E
:1007500093F07F4F81F06051704732F07F4208BFC5
:10076000704793F07F4F04BF41F40021704730B5CC
:100770004FF4607401F0004521F000411CE700BF18
:1007800050EA010208BF704730B54FF000050AE09B
:1007900050EA010208BF704730B511F0004502D59C
:1007A000404261EB41014FF4806404F132045FEA9E
:1007B000915C3FF4D8AE4FF003025FEADC0C18BF47
:1007C00003325FEADC0C18BF033202EBDC02C2F139
:1007D000200300FA03FC20FA02F001FA03FE40EACB
:1007E0000E0021FA02F11444BDE600BF70B54FF0CF
:1007F000FF0C4CF4E06C1CEA11541DBF1CEA1355AD
:1008000094EA0C0F95EA0C0F00F0DEF82C4481EA14
:10081000030621EA4C5123EA4C5350EA013518BF34
:1008200052EA033541F4801143F4801338D0A0FB21
:1008300002CE4FF00005E1FB02E506F00042E0FBCE
:1008400003E54FF00006E1FB03569CF0000F18BFD4
:100850004EF0010EA4F1FF04B6F5007F64F540747C
:1008600004D25FEA4E0E6D4146EB060642EAC6210F
:1008700041EA55514FEAC52040EA5E504FEACE2E7C
:10088000B4F1FD0C88BFBCF5E06F1ED8BEF1004F7F
:1008900008BF5FEA500E50F1000041EB045170BDFB
:1008A00006F0004646EA010140EA020081EA03013F
:1008B000B4EB5C04C2BFD4EB0C0541EA045170BD3B
:1008C00041F480114FF0000E013C00F3AB8014F1B5
:1008D000360FDEBF002001F0004170BDC4F10004FE
:1008E000203C35DA0C341BDC04F11404C4F120057F
:1008F00000FA05F320FA04F001FA05F240EA0200DA
:1009000001F0004221F0004110EBD37021FA04F60F
:1009100042EB06015EEA430E08BF20EAD37070BDC9
:10092000C4F10C04C4F1200500FA04F320FA05F028
:1009300001FA04F240EA020001F0004110EBD3702A
:1009400041F100015EEA430E08BF20EAD37070BD9A
:10095000C4F1200500FA05F24EEA020E20FA04F373
:1009600001FA05F243EA020321FA04F001F0004122
:1009700021FA04F220EA020000EBD3705EEA430E93
:1009800008BF20EAD37070BD94F0000F0FD101F0C2
:100990000046400041EB010111F4801F08BF013CFB
:1009A000F7D041EA060195F0000F18BF704703F039
:1009B0000046520043EB030313F4801F08BF013DC0
:1009C000F7D043EA0603704794EA0C0F0CEA13557C
:1009D00018BF95EA0C0F0CD050EA410618BF52EA36
:1009E0004306D1D181EA030101F000414FF000003C
:1009F00070BD50EA410606BF1046194652EA43064A
:100A000019D094EA0C0F02D150EA013613D195EABD
:100A10000C0F05D152EA03361CBF104619460AD105
:100A200081EA030101F0004141F0FE4141F470010F
:100A30004FF0000070BD41F0FE4141F4780170BDFF
:100A400070B54FF0FF0C4CF4E06C1CEA11541DBF64
:100A50001CEA135594EA0C0F95EA0C0F00F0A7F866
:100A6000A4EB050481EA030E52EA03354FEA013193
:100A700000F088804FEA03334FF0805545EA1313A6
:100A800043EA12634FEA022245EA111545EA10656E
:100A90004FEA00260EF000419D4208BF964244F105
:100AA000FD0404F5407402D25B084FEA3202B61A24
:100AB00065EB03055B084FEA32024FF480104FF4F8
:100AC000002CB6EB020E75EB030E22BFB61A75466C
:100AD00040EA0C005B084FEA3202B6EB020E75EBFF
:100AE000030E22BFB61A754640EA5C005B084FEA67
:100AF0003202B6EB020E75EB030E22BFB61A754634
:100B000040EA9C005B084FEA3202B6EB020E75EB3E
:100B1000030E22BFB61A754640EADC0055EA060EFF
:100B200018D04FEA051545EA16754FEA06164FEA42
:100B3000C30343EA52734FEAC2025FEA1C1CC0D1EE
:100B400011F4801F0BD141EA00014FF000004FF07B
:100B5000004CB6E711F4801F04BF01430020B4F13C
:100B6000FD0C88BFBCF5E06F3FF6AFAEB5EB030CF4
:100B700004BFB6EB020C5FEA500C50F1000041EBF1
:100B8000045170BD0EF0004E4EEA113114EB5C04BE
:100B9000C2BFD4EB0C0541EA045170BD41F4801191
:100BA0004FF0000E013C90E645EA060E8DE60CEA99
:100BB000135594EA0C0F08BF95EA0C0F3FF43BAFB6
:100BC00094EA0C0F0AD150EA01347FF434AF95EA6D
:100BD0000C0F7FF425AF104619462CE795EA0C0F51
:100BE00006D152EA03353FF4FDAE1046194622E71E
:100BF00050EA410618BF52EA43067FF4C5AE50EAF8
:100C000041047FF40DAF52EA43057FF4EBAE12E7E7
:100C10004FF0FF3C06E000BF4FF0010C02E000BFC8
:100C20004FF0010C4DF804CD4FEA410C7FEA6C5CAB
:100C30004FEA430C18BF7FEA6C5C1BD001B050EA4E
:100C4000410C0CBF52EA430C91EA030F02BF90EA39
:100C5000020F0020704710F1000F91EA030F58BFF8
:100C6000994208BF90422CBFD8176FEAE37040F05A
:100C7000010070474FEA410C7FEA6C5C02D150EAF8
:100C8000013C07D14FEA430C7FEA6C5CD6D152EAB3
:100C9000033CD3D05DF8040B704700BF8446104678
:100CA00062468C461946634600E000BF01B5FFF777
:100CB000B7FF002848BF10F1000F01BD4DF808ED47
:100CC000FFF7F4FF0CBF012000205DF808FB00BF18
:100CD0004DF808EDFFF7EAFF34BF012000205DF872
:100CE00008FB00BF4DF808EDFFF7E0FF94BF0120BF
:100CF00000205DF808FB00BF4DF808EDFFF7CEFFC0
:100D000094BF012000205DF808FB00BF4DF808EDFE
:100D1000FFF7C4FF34BF012000205DF808FB00BFCF
:100D20004FEA410C7FEA6C5C02D150EA013C0AD1E7
:100D30004FEA430C7FEA6C5C02D152EA033C02D1D9
:100D40004FF0000070474FF0010070474FEA41023A
:100D500012F5001215D211D56FF47873B3EB62520D
:100D600012D94FEAC12343F0004343EA505311F034
:100D7000004F23FA02F018BF404270474FF00000C6
:100D8000704750EA013005D111F0004008BF6FF004
:100D9000004070474FF00000704700BF0348044B0D
:100DA000834202D0034B03B118477047DC06002092
:100DB000DC060020000000000548064B1B1AD90F76
:100DC00001EBA301491002D0034B03B11847704750
:100DD000DC060020DC0600200000000010B5064CF8
:100DE000237843B9FFF7DAFF044B13B10448AFF39C
:100DF00000800123237010BDDC06002000000000ED
:100E0000507C000808B5054B1BB105490548AFF3F8
:100E10000080BDE80840FFF7CFBF00BF0000000022
:100E2000E0060020507C000808B50748074B036027
:100E30004FF4165383600023C3730371037343732A
:100E4000837300F0DBFB08BDFC0600200038014086
:100E500000B585B04FF09043019302238DF809301F
:100E600000228DF80C2001228DF80B208DF80A301D
:100E700007238DF80D3009238DF8083001A800F004
:100E80009DF90A238DF8083001A800F097F905B004
:100E90005DF804FB00B585B04FF090400190002351
:100EA0008DF808308DF8093002228DF80A208DF86F
:100EB0000B30012100F006F901A800F07FF905B020
:100EC0005DF804FB70B500F071F8FFF7C1FFFFF7A4
:100ED000ABFF0121252000F0E2FA01211C4800F0BF
:100EE000D7FA1C4800F0E2FDFFF7D4FF00240021F0
:100EF0004FF0904000F03EFA0028F8D0164BA3FBCC
:100F0000042323F0010202EB5303E41A134D55F8B6
:100F100024603046FFF754F902463146104800F08D
:100F20001CFB55F824100F4800F060FD0E4B1B7899
:100F3000012BFBD1094B53F82400FFF741F9013095
:100F400000230A4A1354084A13700134CFE700BF44
:100F500000380140687C0008ABAAAAAA0000002063
:100F6000FC060020807C0008F806002020070020F6
:100F700008B5024800F085FB08BD00BFFC06002054
:100F8000012900D07047024B01221A70FAE700BF16
:100F9000F8060020FEE7FEE7FEE7FEE7FEE7704703
:100FA0007047704708B500F06FFC08BD704701201E
:100FB000704708B500F074FC162303604FF0FF3053
:100FC00008BD08B54FF0FF31FFF7F3FFFEE770B53E
:100FD0000C461646002506E0AFF30080214601F8D6
:100FE000010B01350C46B542F6DB304670BD70B5DD
:100FF0000C461646002504E014F8010BAFF3008000
:101000000135B542F8DB304670BD4FF0FF30704718
:101010004FF400534B6000207047012070470020C0
:101020007047000010B503460C4A0D490D48006892
:1010300040B10C4800680344521A934206D8094A4A
:10104000136010BD0748084C0460F2E700F028FC6C
:101050000C2303604FF0FF30F3E700BF00A0002037
:1010600000040000200B0020400E0020704700000C
:10107000DFF834D0FFF7FAFF0C480D490D4A002382
:1010800002E0D458C4500433C4188C42F9D30A4A3D
:101090000A4C002301E013600432A242FBD300F0AB
:1010A00061FCFFF70FFFFEE700A00020000000201A
:1010B000DC060020DC800008DC0600203C0E00205E
:1010C000FEE70000012912D0B0F1904F45D0354B1A
:1010D000984248D0344B98424BD0344B98424ED033
:1010E000334B984251D0334B984254D07047B0F1B3
:1010F000904F14D02B4B984217D02B4B98421AD0BC
:101100002A4B98421DD02A4B984220D0294B984216
:10111000ECD1294A536943F4800353617047264A4E
:10112000536943F4003353617047234A536943F4CE
:10113000802353617047204A536943F4002353616D
:1011400070471D4A536943F48013536170471A4A2C
:10115000536943F4001353617047174A536923F4EA
:10116000003353617047144A536923F48023536159
:101170007047114A536923F40023536170470E4AA4
:10118000536923F48013536170470B4A536923F466
:10119000001353617047084A536923F48003536175
:1011A000A4E700BF0004004800080048000C004805
:1011B00000100048001400480010024038B50446F2
:1011C00001210068FFF77EFF6379022B0ED8257995
:1011D0006A009340206802680B21A94022EA0102BC
:1011E000026021680A6813430B6066E0042B11D08B
:1011F000052B3AD0062B1BD15B4BD96820790122F5
:1012000002FA00F00143D9609968207982400A43CC
:101210009A600DE0544BD9682079012202FA00F05F
:101220000143D96099682079824021EA02029A60DC
:101230002279930802F003022168B1F1904F25D082
:101240004A4881426FD000F5806081426DD000F540
:10125000806081426BD000F58060814269D000F5EA
:101260008060814210D0002011E03F4B99682079C6
:10127000012202FA00F001439960D9682079824086
:1012800021EA0202DA60D3E7052000E00020384DB1
:10129000A96941F00101A96102EB420200FA02F2E0
:1012A0009B0003F1804303F580335A602E490B689D
:1012B00020790122824013430B60A17922795300E7
:1012C00099402568A8680B2303FA02F220EA02027B
:1012D000AA60206882680A438260E27994F804C0B8
:1012E0004FEA4C018A402068C16803FA0CF321EAF6
:1012F0000303C3602168CB681343CB60E27994F8A1
:1013000004C002FA0CF220680368012101FA0CF112
:1013100023EA0103036021684B6813434B60637940
:10132000022B08D038BD0120B1E70220AFE703202F
:10133000ADE70420ABE72379DA0803F0070325685B
:10134000083255F822109B000F20984021EA000136
:1013500045F82210256855F82210607A00FA03F348
:101360000B4345F82230DDE700040140000400484B
:10137000001002400069C84000F001007047000002
:10138000134B5B6813F00C0F1AD1124B104A5268C2
:10139000C2F3031112F0800F14D008390E4A12F86C
:1013A00011C00B4A5268C2F3423112F4004F0CD004
:1013B00004390A4A505CB3FBFCF3B3FBF0F070470E
:1013C000074BE3E74FF0010CEBE70120F3E700BF29
:1013D000001002400024F400100000200C00002047
:1013E00000127A000020704708B5174B5B68C3F302
:1013F000810213F00C0F06D0012A1FD0022A03D15C
:10140000FFF7F0FF00E011480F4B5B68C3F30312D6
:1014100013F0800F14D0083A0D4B13F812100A4B3A
:101420005B68C3F3822213F4805F0BD0043A094B4C
:101430009B5CB0FBF1F0B0FBF3F008BD0648E3E7BE
:101440000121ECE70123F4E7001002400024F4003E
:10145000100000200C00002000127A00012903D0A7
:10146000094B984209D07047074B9842FBD1074A75
:10147000936943F4804393617047044A936923F46A
:1014800080439361EFE700BF003801400010024045
:1014900003680B4303607047C06908407047012927
:1014A0000BD01F2837D84FF0E021D1F8803101222E
:1014B00082401343C1F8803170471F2809D84FF08C
:1014C000E021D1F80031012282401343C1F80031FC
:1014D0007047A0F12003DBB21F2B0BD84FF0E021A7
:1014E000D1F8043100F01F00012282401343C1F8FB
:1014F00004317047A0F14003DBB21F2B2CD84FF012
:10150000E021D1F8083100F03F000122824013436E
:10151000C1F808317047A0F12003DBB21F2B0BD8B4
:101520004FF0E021D1F8843100F01F000122824009
:101530001343C1F884317047A0F14003DBB21F2B85
:101540000AD84FF0E021D1F8883100F03F000122A5
:1015500082401343C1F888317047F8B504460E46FF
:101560001746002508E033882268C3F30803936216
:10157000A37BBBB902360135BD4215D2802120685C
:10158000FFF78AFF0028F9D002212068FFF784FFC7
:101590000028F9D1637B012BE5D0236816F8012BD5
:1015A0009A62E8E70136E6E740212068FFF774FF1A
:1015B0000028F9D0F8BD000038B505460C460E4BA2
:1015C000984212D0FFF710FF2B6813F4004F0FD092
:1015D0004000B0FBF4F02B6813F4004F03D0C0F3CD
:1015E000410343EA0010E86038BDFFF7C9FEEBE7AE
:1015F000B0FBF4F0EFE700BF0038014010B504463F
:1016000001210068FFF72AFF2379012B04D0DBB109
:10161000022B1BD0002300E00423627B43EA027309
:10162000A27B012A14D0022A15D022681360237BE2
:101630001B0322685360E37B012B0FD0022B1AD0CF
:10164000032B1BD000220BE00823E6E70C23E4E782
:1016500043F48073E9E743F44073E6E74FF4007224
:1016600023689A60A1682068FFF7A6FF012120681F
:10167000FFF70EFF10BD4FF48072F1E74FF4407298
:10168000EEE738B504460268D169136811F0400FDF
:1016900006D003F040031BB190F82030022B4ED04F
:1016A0002268D169136803F0800311F0800F04D021
:1016B0001BB194F82030022B50D02268D1691368F6
:1016C00003F0200311F0200F04D01BB194F8213057
:1016D000012B71D02368D9699A6802F40072986866
:1016E00011F4806F02D0002A40F0A8802268D169EE
:1016F000136803F0100311F0100F02D0002B40F01C
:10170000A6802368DA691B6803F0050312F0080F4E
:1017100002D0002B40F0A48023689A6812F0010FD9
:101720000CD0DD6915F0020F40F09F8015F0040F1A
:1017300040F0A08015F0080F40F0A18038BD83690B
:10174000002BADD1D36923F04003D361002180F891
:10175000201001618161FFF713FCA1E7A3695BB170
:10176000637B012B11D023691B78936223690133BA
:101770002361A369013BA361A369002B9DD122686A
:10178000136823F08003136097E723691B88C3F372
:1017900008039362A37B43B923695A1C2261023375
:1017A0002361A369023BA361E6E723690133236157
:1017B000A369013BA361DFE7E36973B1637B012B9D
:1017C0001CD0A37B002B33D1526A63691A70636902
:1017D00001336361E369013BE361E369002B7FF45B
:1017E00079AF2268136823F020031360002384F884
:1017F000213001212046FFF7C3FB6BE7A37B6BB9C8
:10180000536A6269C3F30803138063695A1C6261F7
:1018100002336361E369023BE361DEE7526A6369B5
:101820001A70636901336361E369013BE361D4E7E3
:10183000536A626903F07F031370C8E7DA6922F420
:101840008062DA6103212046FFF79AFB4EE7D369F5
:1018500023F48033D36102212046FFF791FB50E748
:1018600007212046FFF78CFB56E705212046FFF7AE
:1018700087FB5BE706212046FFF782FB5AE707213B
:101880002046FFF77DFB59E7034A1168034B1B789D
:101890000B441360704700BF240B00202000002081
:1018A000014B1868704700BF28000020024B13B19D
:1018B000024800F003B9704700000000B5190008A5
:1018C000830730B547D0541E002A3ED0CAB2034623
:1018D00001E0013C39D303F8012B9D07F9D1032C1A
:1018E0002CD9CDB205EB05250F2C05EB054535D9D7
:1018F000A4F1100222F00F0C03F1100EE6444FEA9F
:10190000121C1A46156055609560D56010327245FC
:10191000F8D10CF1010214F00C0F03EB021204F0E9
:101920000F0C13D0ACF1040323F00303043313446E
:1019300042F8045B9A42FBD10CF003042CB1C9B20B
:101940001C4403F8011B9C42FBD130BD6446134686
:10195000002CF4D1F9E703461446C0E71A46A44622
:10196000E0E700BF70B50F4B0F4DAB42A3EB050690
:1019700007D0B610002455F8043B01349847A6421E
:10198000F9D806F065F9094D094B5E1BAB424FEAE9
:10199000A60606D0002455F8043B01349847A64219
:1019A000F9D870BDD0800008D0800008D080000831
:1019B000D880000838B5074D074C2C1BA41005D063
:1019C000013C55F8043D9847002CF9D1BDE838405A
:1019D00006F044B9DC800008D8800008704700BFDA
:1019E000704700BF704700BF704700BF0FB400B51D
:1019F000074983B004AB086853F8042B816801934E
:101A000000F02EFB03B05DF804EB04B0704700BF9C
:101A10002800002070B5054688B008460C46FEF741
:101A2000CFFB214E6A6B059001214318CDE9066179
:101A300004A8022104940393AC6801900291002A47
:101A40002ED0626EB4F90C30D60701D4980521D59A
:101A5000990406D4626E43F4005322F40052A38129
:101A60006266284601AA214600F044F9636E002808
:101A70000CBF0A254FF0FF35DA0702D4A3899B0576
:101A800002D5284608B070BDA06DFFF7ADFF28460F
:101A900008B070BDA06DFFF7A5FFB4F90C30D7E713
:101AA000284600F0B5F8CCE7907C0008024B0146D0
:101AB0001868FFF7AFBF00BF2800002000230146D1
:101AC0001A46184603F08CB9024A0349034800F04D
:101AD0008DBA00BF500100203555000830000020AD
:101AE0000C4B4168994210B5044601D003F022FD29
:101AF000A168094B994202D0204603F01BFDE16822
:101B0000064B994204D02046BDE8104003F012BDB8
:101B100010BD00BF380B0020A00B0020080C0020D7
:101B20002DE9F843314C324B3248DFF8CC90DFF8E6
:101B3000CC80334F1860002529460423082204F185
:101B40005C00304EE360C4E90055C4E90455A5606B
:101B50006566A561FFF7B4FE04F15800C4E90749C2
:101B6000C4E90987E662FFF739FF2946264B636718
:101B7000082204F1C400C4E91A55C4E91E552567BA
:101B8000C4F8CC50C4F88050FFF79AFE04F1680303
:101B900004F1C000C4F88430C4E92298C4E9247672
:101BA000FFF71CFF194BC4F8DC30294604F596708A
:101BB0000822C4E93455C4E93855C4F8D850C4F8EB
:101BC0003451C4F8E850FFF77BFE04F1D003C4E9B8
:101BD0003D87C4F8F09004F59470C4F8FC60C4F834
:101BE000EC30BDE8F843FFF7F9BE00BF380B00202A
:101BF000700C0020C91A0008651C0008891C000828
:101C0000C91C0008ED1C00080900010012000200B8
:101C100010B504460A48FFF7E5FE636B23B9094B8C
:101C2000094A1B68626323B1BDE810400448FFF70E
:101C3000DBBEFFF775FFBDE810400148FFF7D4BEDB
:101C4000340B0020700C0020E11A00080148FFF757
:101C5000C9BE00BF340B00200148FFF7C5BE00BF5E
:101C6000340B002010B50C46B1F90E1005F0EAF95E
:101C7000002803DB236D0344236510BDA38923F4EF
:101C80008053A38110BD00BF2DE9F0410C46B1F98E
:101C90000C101F46CB05054616460BD421F4805187
:101CA000A1813B46B4F90E1032462846BDE8F0410A
:101CB00000F0C0B9B4F90E100223002205F0ACF90F
:101CC000B4F90C10EAE700BF10B50C46B1F90E10DC
:101CD00005F0A2F9B4F90C30421C0EBF23F4805376
:101CE00043F480532065A38110BD00BFB1F90E10ED
:101CF00004F032BD9368002B00F0F6802DE9F04F20
:101D0000B1F90CC01CF0080F83B0904681460C4618
:101D100031D00B697BB31CF00207D8F8006038D0D3
:101D20000027D4F824B0E169DFF8BCA23D46554550
:101D30002B463A4628BF53464846C5B1D8470028E7
:101D400040F3C880D8F808301B1A07442D1AC8F889
:101D50000830002B00F0B48055452B46D4F824B051
:101D6000E16928BF53463A464846002DE6D1D6E9F8
:101D700000750836DBE72146484603F049FC002899
:101D800040F0AD80B4F90CC0D8F800601CF0020738
:101D9000C6D11CF0010A63D12368A16857461846D2
:101DA0008B46002F58D01CF4007F00F0B180B94260
:101DB0000A4600F2DD801CF4906F2FD02169626921
:101DC0005D1A02EB420202EBD2726B1C52103B44D2
:101DD000934292BF93469B461A461CF4806F00F0D4
:101DE000E6801146484603F03BF8002800F0F580F5
:101DF0002A4621690190FEF7A3FAA289019B22F4E9
:101E0000906242F08002A2815819ABEB0505C4F83C
:101E100014B02361A5602060BB463A46514601924A
:101E200003F0D8FAA1682368019AA1EB0B011A44C8
:101E30003D46A16022600027D8F808305B1BAA4409
:101E4000C8F80830002B3BD02368A168B4F90CC057
:101E500018468B46002FA6D1D6E900A708369EE784
:101E60003846BB463D46002D40D0002845D03A4676
:101E7000D4E904C32068A168AA4228BF2A46604565
:101E800004D901EB030A524500F38280934272DCCD
:101E9000E169D4F824C05A464846E047B0F1000A48
:101EA00018DDB7EB0A070FD00120D8F80830A3EBF4
:101EB0000A03D344A5EB0A05C8F80830002BD2D199
:101EC000002003B0BDE8F08F2146484604F0EAFC4C
:101ED0000028EAD0B4F90C3043F04003A3814FF05E
:101EE000FF3003B0BDE8F08F0020704775683346BF
:101EF0000836002DFAD0D3F800B02A460A215846F9
:101F0000FEF7CEF9002865D00130A0EB0B07AEE755
:101F100022699A4214D36269BA4211D86FF0004321
:101F2000BB4228BF3B46656A93FBF2F3E16902FBC3
:101F300003F348465246A847051ECBDD7F1B7BE7CF
:101F4000B94228BF39460D4618460A46514603F0A5
:101F500041FAA1682368491B2B44A1602360002932
:101F6000ECD12146484604F09DFC0028E6D0B1E7BC
:101F7000BB463A4652E75946019203F02BFA019AC2
:101F8000A3689B1AA360236813442360924688E7E2
:101F90005946524603F01EFA2368534423602146F3
:101FA000484604F07FFC00283FF47BAF92E74846A8
:101FB00004F0DAFC034600287FF426AF2169484686
:101FC00004F0D0FEB4F90C300C2223F08003C9F8E1
:101FD000002081E76A1C17464AE70C22B4F90C304E
:101FE000C9F8002078E700BF00FCFF7F2DE9F84327
:101FF00080460F4616464FF00009D6E90154013DD0
:1020000011D4A389012B05F1FF3508D9B4F90E309D
:102010000133214603D04046B84749EA00096B1C0A
:1020200004F16804EDD13668002EE6D14846BDE8DB
:10203000F88300BF38B50C46084D8446114620464B
:102040001A4600232B606446FEF7D1FF431C00D0E4
:1020500038BD2B68002BFBD0236038BD380E002024
:102060002DE9F04FDFB01C4607919146834603F0FF
:102070005DFA036819931846FEF7A2F80822189033
:1020800000212EA80D94FFF71BFCBBF1000F04D01C
:10209000DBF83430002B01F07F80079B5A6EB3F9D8
:1020A0000C30D50702D4980540F19F86990407D4D7
:1020B00007994A6E43F4005322F400528B814A661A
:1020C0001A0740F1CC80079A1269002A00F0C780F5
:1020D00003F01A020A2A00F0D1800023CDE933333D
:1020E000CDE91B33CDE91D3313931A930A930024D2
:1020F0000023CDE9163435AA32929046CDF820B0AF
:102100004D46089F2E468D4BD3F8E44003F008FA65
:1021100003462EA8009032462AA93846A047002838
:1021200000F0CB80C0F2C1802A9A252A034601D054
:102130001E44E8E7771B044640F0C28000238DF878
:102140009F3099460B934FF0FF3273780992741CBD
:102150000134A3F120025A2A00F2F280DFE812F0E3
:10216000C702F000F000C302F000F000F0006A00C7
:10217000F000F0007D02A002F0008802A902F00049
:10218000A5025B005B005B005B005B005B005B002B
:102190005B005B00F000F000F000F000F000F000E9
:1021A000F0007101F0000802220371017101710158
:1021B000F000F000F000F0001E03F000F000DA0282
:1021C000F000F000F0002602F0000B03F000F00039
:1021D0001707F000F000F000F000F000F000F00051
:1021E000F0007101F00008025802710171017101E3
:1021F000960258020402F0008C02F0004D033F07E3
:102200003B030402F00026027D003A07F000F000D4
:102210004307F0007D00A3F13002002114F8013BD8
:1022200001EB810102EB4101A3F13002092AF5D94A
:102230000B918EE7089F384603F078F943681D93A9
:102240001846FDF7BDFF1E900646384603F06EF9AE
:1022500083681B93002E40F02186237878E7079D42
:102260005846294603F0D4F9002841F0A683B5F971
:102270000C3003F01A020A2A7FF42FAF0799B1F944
:102280000E20002AFFF629AF4A6ED50702D4980522
:1022900041F1BF81079923464A46584601F004FDA3
:1022A0000A900A985FB0BDE8F08F082200212EA89E
:1022B000FFF706FB01231E4425E7771B044611D0D8
:1022C000349B3B443493339B0133072BC8E90057BD
:1022D000339313DC08F108080A9B3B440A93002C53
:1022E0007FF42CAF349BDDF820B0002B41F0D6807A
:1022F000079B0022B3F90C30339212E0DDE907109E
:1023000032AA01F04DFD48B90DF1D408E4E7BB460F
:102310000C9B1BB10C99584604F024FD079BB3F9A4
:102320000C30079A526ED40740F11481590601F11E
:1023300050830A985FB0BDE8F08F00BF70050020A1
:10234000CDE90E34002BCDD000228DF814310123BD
:102350008DF89F2006930C929B460992149210923E
:10236000129245AD19F0020302D00699023106918E
:1023700019F08407349C05D10B9906980E1A002E8B
:1023800000F3A78082B10122C8F80420339A0132F9
:1023900001340DF19F01072A34943392C8F80010DC
:1023A00000F3E18308F1080883B1339B28AA0133C5
:1023B0000234C8F80020072B4FF002023494339304
:1023C000C8F8042000F3DD8308F10808802F00F02E
:1023D000BE82099BA3EB0B06002E00F3FD8219F4CD
:1023E000807F40F01982339BC8F8005001335C4471
:1023F000072BC8F804B03494339300F34D8308F1ED
:10240000080819F0040F05D00B9B069A9D1A002DA1
:1024100000F3C383DDE90A3206998A42ACBF9B18F8
:102420005B180A93002C40F00F83002333930C9B1E
:102430001BB10C99089804F095FC0DF1D4080F9D80
:102440005FE6CDE90E340D9B073323F00703F3E875
:1024500002670D9327F0004323932296DDE922AB18
:10246000A84B4FF0FF3250465946CDE91667FEF7AC
:1024700057FC002840F03085A24B4FF0FF32504609
:102480005946FEF72FFC002840F026850022002345
:1024900030463946FEF71CFC002841F00F819DF8BC
:1024A0009F20994D994B29F080090E994729C8BF63
:1024B0001D46002303210C9306918B460993149328
:1024C00010931293002A3FF44DAF069B01330693FD
:1024D00048E7102E339A41F33D828D482195CDE98E
:1024E0001F372146079D089C15904FF0100A07469C
:1024F00004E0103E102E08F1080816DD01321031FC
:10250000072AC8E9007ACDE93321F2DD32AA29464B
:1025100020460DF1D40801F043FC002840F0368637
:10252000103E102EDDE93321E8DCDDE91F37219D67
:102530000C4601321599C8F800103444072ACDE939
:102540003324C8F8046000F310869DF89F2008F13A
:10255000080817E798053FF5E9AE079CA06DFFF75F
:1025600043FAB4F90C30E1E6237849F02009EFE5AD
:102570000D9A432BCDE90E3402F1040400F062857C
:1025800019F0100F40F05E850D9B1B688DF814311B
:10259000012306939B4645AD00220D948DF89F20A4
:1025A0000C920992149210921292DBE60D9E56F84C
:1025B000045BCDE90E3400238DF89F30002D00F030
:1025C00030850E9B532B00F0018619F010031293F7
:1025D00040F0FC85099B5A1C00F06A8712991A4644
:1025E0002846FDF75DFE0C90002801F0C5820C9B8B
:1025F0000D96A3EB050B129B09932BEAEB71149339
:1026000010930C9373239DF89F2006910E9359E726
:1026100019F0200FCDE90E3400F0CC800D9B07336C
:1026200023F007031A46596852F8083B0D920A46F0
:102630000029C0F225840999013100F0858253EA0E
:10264000020129F0800440F08082099A002A40F0BB
:102650008182A14693465EAD50E10D9B53F8042B59
:102660000B92002A80F2CE830B9A0D9352420B926A
:10267000237849F004096BE523786C2B03BF63785A
:1026800049F02009013449F0100961E52378682BED
:1026900003BF637849F40079013449F0400957E5F4
:1026A0002B238DF89F30237852E5237849F0800959
:1026B0004EE5214611F8013B2A2B01F0DB82A3F104
:1026C0003002092A0C4698BF002101F2728114F8E9
:1026D000013B01EB810102EB4101A3F13002092A28
:1026E000F5D9099135E5237849F0010930E59DF8E0
:1026F0009F202378002A7FF42BAD20228DF89F2085
:1027000026E500BFFFFFEF7FCC7C0008D07C0008EF
:10271000207D0008CDE90E3449F0100919F020029F
:1027200000F054830D9B073323F0070319465A68C2
:1027300051F8083B0D9129F4806400210020099D87
:102740008DF89F006F1C00F0C28053EA020024F055
:10275000800940F0BB80002D40F02385002940F027
:10276000968414F0010B00F0518330238DF87731FB
:102770000DF27715C2E0CDE90E3449F0100414F0E3
:10278000200200F015830D9B073323F00703194641
:102790005A6851F8083B0D910121CFE7237849F0A1
:1027A0000809D5E449F0100919F0200FCDE90E34DD
:1027B0007FF434AF0D9A19F0100F52F8043B0D92CC
:1027C00040F0598319F0400F00F0518343F3C032B9
:1027D00011461BB22CE70D9A0F9452F8043B0D9250
:1027E00047F63002ADF8A0207820B14A1A9249F09D
:1027F0000204002202210E90A0E719F0200F0F948E
:1028000000F059830D9B0A9A1B681A60D2175A6010
:102810000D9B04330D9312E60E9B652B40F34E8106
:10282000DDE9160100220023FEF748FA002800F037
:10283000EE81339B9F4AC8F8002001330134012206
:10284000072B34943393C8F8042000F3AF8408F1C5
:102850000808299B139A934280F2CF82189B199AF9
:102860001C44C8E90023339B34940133072B339372
:1028700000F3CB8308F10808139B5D1E002D7FF742
:10288000C0AD102D339B40F3FA848B4F1597DDE9D3
:1028900007AB102605E008F10808103D102D40F3A5
:1028A000F08401331034072BC8E90076CDE93334C6
:1028B000F1DD32AA5146584601F072FA00287FF441
:1028C00027ADDDE933340DF1D408E6E74C460129A4
:1028D00000F03B8102295EAD1ED11A9803F00F0172
:1028E0001B09415C05F8011D43EA0273120953EA12
:1028F0000201F3D15EABA146A3EB050B09999DF84C
:102900009F2059454FF00003B8BF59460C930691DC
:10291000149310931293D5E503F00701DB0843EA03
:102920004273D208303153EA0206284605F8011DE9
:10293000F2D1E607DED53029DCD03023023805F8A5
:10294000013C5EABA146A3EB000B0546D6E70B9B13
:10295000069A9E1A002E7FF73CAD102E339B41F352
:10296000AD805548DDF820A01590214610271A4665
:10297000044604E0103E102E08F1080816DD01326E
:102980001031072AC8E90047CDE93321F2DD079964
:1029900032AA50460DF1D40801F002FA002840F0A6
:1029A000F883103E102EDDE93321E8DC0C46134697
:1029B0000133159AC8F800203444072BCDE933348D
:1029C000C8F8046000F31483099BA3EB0B06002EE8
:1029D00008F108087FF703AD374A339B1592102E94
:1029E00023DD22464FF0100ADDE9074704E0103EE0
:1029F000102E08F1080817DD01332F491032072B7C
:102A0000C8E9001ACDE93332F1DD32AA2146384651
:102A100001F0C6F900287FF47AAC103E102EDDE9F3
:102A200033320DF1D408E7DC14460133159AC8F8A7
:102A300000203444072BCDE93334C8F8046000F398
:102A4000AA8108F10808CAE4DDE9071032AA01F0FA
:102A5000A7F900283FF4E9ACDDF820B058E4189B52
:102A600019991C44C8E90013339B34940133072B94
:102A7000339300F3BF8508F10808002AC0F2AE873F
:102A8000139AC8F8005001331444072BCDE93334AE
:102A9000C8F804207FF7B3ACDDE9071032AA01F0D3
:102AA0007FF90028D8D1349C0DF1D408A9E400BFE7
:102AB000DC7C00080C7D0008107D0008139B339E11
:102AC000012B04F1010406F1010608F1080740F3A7
:102AD0001D810123072ECDE93364C8F80050C8F8E2
:102AE000043000F3E482189B199A01361C44072E27
:102AF000C7E90023CDE9336400F3CD820837139B87
:102B0000DDE9160103F1FF3800220023FEF7D6F8B5
:102B1000002840F01581013601354444072ECDE9E7
:102B200033643D60C7F8048000F3FE8008371C9BC7
:102B30007B6001361C44072E2CABCDE933643B602F
:102B4000AADC07F108085CE44C460A2B72F100018C
:102B500080F0B98230338DF87731A1464FF0010B08
:102B60000DF27715CAE6DDE9071032AA159301F0D8
:102B700017F900287FF470AF349C159B0DF1D40831
:102B800012E4DDE9071032AA01F00AF900287FF407
:102B900063AF349C0DF1D40818E4102D339B40F33F
:102BA0005287BB4F1597DDE907A9102604E0103DB9
:102BB000102D08F1080816DD01331034072BC8E981
:102BC0000076CDE93334F2DD32AA514648460DF1A4
:102BD000D40801F0E5F8002840F0F582103D102DF2
:102BE000DDE93334E8DC0133159A2C44072BC8E9BE
:102BF0000025CDE933347FF70DACDDE9071032AAAB
:102C000001F0CEF800287FF427AF349C02E4299A23
:102C1000002A40F3FD80DDE912739F42A8BF1F46E2
:102C2000002F05EB030B0BDD339B01333C44072BDB
:102C3000C8E900573494339300F36F8608F108080D
:102C4000129E002FA8BFF61B002E00F34783DDF86D
:102C500048A019F4806FAA4440F07A85299D139BFF
:102C60009D4203DB19F0010F00F00484189B199AB0
:102C70001C44C8E90023339B34940133072B33935E
:102C800000F35A8608F10808139BABEB0A065D1B9C
:102C9000AE42A8BF2E46002E0DDD339BC8F800A023
:102CA00001333444072BC8F804603494339300F3A1
:102CB000558608F10808002EA8BFAD1B002D7FF730
:102CC000A0AB102D339B40F3DA82724F1597DDE9EC
:102CD00007AB102605E008F10808103D102D40F361
:102CE000D08201331034072BC8E90076CDE93334A4
:102CF000F1DD32AA5146584601F052F800287FF41F
:102D000007ABDDE933340DF1D408E6E719F0010F24
:102D10007FF4DFAE0123072ECDE93364C8F80050FD
:102D2000C8F804307FF703AFDDE9071032AA01F0DD
:102D300037F800287FF490AEDDE9336435AFF6E66E
:102D4000139B012B7FF7F3AE112B524B159340F3DE
:102D5000B982CDF82490DDE907BA1025994606E03E
:102D60000837A8F11008B8F1100F40F3A982013616
:102D70001034072EC7E90095CDE93364F0DD32AA9F
:102D80005946504601F00CF8002840F00282DDE977
:102D9000336435AFE5E7DDE9071032AA01F000F84A
:102DA00000287FF459AE349C0DF1D408FFF717BB0F
:102DB0000D9951F8043B0D9114F0100155D114F008
:102DC00040004DD00A469BB20121B7E40D9951F85D
:102DD000043B0D9119F010017FF4ADAC19F04000E7
:102DE00000F0A9829BB20A46A5E4079DA86DFEF7F4
:102DF000F9FDB5F90C30FFF759B919F0010F3FF49F
:102E000000AB2BE50D932378FFF7A2B95EAD75E516
:102E1000339B2149C8F80010013301340121072BED
:102E200034943393C8F8041000F3518508F108086E
:102E3000002A7FF414AE139A09F0010313433FF400
:102E4000E0AA189B199A1C44C8E90023339B3494C8
:102E50000133072B339300F3CD8308F108080FE605
:102E600014F400721CBFDBB20246012166E419F4BF
:102E7000007F40F00783DA1711460029BFF6DBAB6D
:102E80005B4262EB42024C462D20012157E400BF19
:102E9000207D0008107D00080C7D00081B9A237817
:102EA000002A3FF455A91278002A3FF451A949F4A9
:102EB0008069FFF74DB919F0100F40F0FB8119F050
:102EC000400F40F0E58219F4007F00F0F3810D9B84
:102ED0000A9A1B681A709BE4DDE9160102460B464C
:102EE000FDF71EFF002840F038860E9B612B00F096
:102EF0002185412B00F0E382099B013300F0178606
:102F00000E9B23F02003472B04D1099B002B08BF05
:102F100001230993DDE9161249F48070002A159007
:102F2000CDF818904FF00003C0F2DF84CDE92412F1
:102F30001F930C930E9B413B252B00F20382DFE88D
:102F400013F074030102010201026D037103010217
:102F50000102010201020102010201020102010259
:102F60000102010201020102010201020102010249
:102F70000102010201020102010201020102010239
:102F8000010201020102010201026D037103CDE998
:102F90000E34C34B1A9319F020026AD00D9B0733ED
:102FA00023F0070319465A6851F8083B0D9119F0B0
:102FB000010F0AD053EA020107D00E998DF8A11033
:102FC000302149F002098DF8A01029F48064022113
:102FD000FFF7B4BBCDE90E344C46FFF7D0BBCDE9CB
:102FE0000E34FFF79BBBCDE90E34AE4B1A93D2E7FC
:102FF000DDE9071032AA00F0D3FE00287FF42CADE3
:10300000349C0DF1D408FFF7E4B9DDE9071032AACA
:1030100000F0C6FE00287FF41FAD349C0DF1D408EB
:103020002AE4099B0C95062B294628BF06230995FF
:103030002A4606939C4D0D969B4614911091129131
:10304000FFF740BA0822002130A8FEF739FC0D9B9B
:1030500008981A6845AD30AB294602F03BFAB0F14A
:10306000FF3F834600F0448520EAE0730693FFF7B4
:1030700093BA0D9951F8043B0D9119F0100196D1B6
:1030800019F0400000F051819BB20A468FE7DDF84D
:1030900024B05EAD32E4DDE9071032AA00F080FE14
:1030A00000287FF4D9ACDDE9336435AF27E5DDE9ED
:1030B000071032AA00F074FE00287FF4CDACDDE9E1
:1030C000336435AF0FE504F4806B0021CDF8308018
:1030D000DFF8D891DDF86C8006945EAD4FF0CC3A05
:1030E00005278C465E4605E00A2B72F1000233D3B9
:1030F0005B462246991841F10001A9FB010424F026
:10310000030000EB9400091A581A62F1000E0AFB42
:1031100000F4A0FB09B009FB0E440BF0010E0444BF
:10312000AEFB070E40184FEA5B0B303005F8010C80
:103130004BEAC47B0CF1010C013D6408002ED3D096
:1031400098F800108C45CFD1BCF1FF0FCCD00A2BE2
:1031500072F1000280F0C582CDF86C80069CDDF82B
:103160003080CDF84CC0FFF7C5BBDDE9071032AAAF
:10317000159300F015FE00287FF46EAC9DF89F209B
:10318000349C159B0DF1D408FFF7FCB8A346FFF75C
:10319000BFB8D346FFF7BCB85846FEF739FDFEF777
:1031A0007CBF01294C467FF495ABD3E4DDE90710E1
:1031B00032AA00F0F5FD00287FF44EAC349C0DF1EE
:1031C000D408FFF746BBCB46FFF7A2B830AF0822C2
:1031D000002138462B95FEF773FBDDF824A0BAF1E9
:1031E000FF3F00F070820024CDF81890A346DDF870
:1031F00020900CE045A9484602F06CF9411C584467
:1032000000F07684504508DC00F0C38483462B9A96
:1032100012593B460434002AECD1DDF81890BBF17A
:10322000000F00F04383BBF1630F40F3FA8308986B
:103230000BF1010101F014FE0546002800F058844E
:103240000C90082200213846FEF73AFB08980097B8
:103250005B462BAA294602F0B5FA834540F0198552
:10326000002305F80B302BEAEB719DF89F200D969B
:1032700009930691149310931293FFF723B90C4A04
:1032800015920133159AC8F800202C44072BC8F872
:103290000450CDE933347FF7B2A8FFF7FDBB00BF80
:1032A000F07C0008DC7C0008047D0008CDCCCCCC90
:1032B000107D00080D9B0A9A1B681A60FFF7A8BAD8
:1032C000DDF82490159B3B6001364444072ECDE980
:1032D0003364C7F804807FF729AC25E5102E339BB3
:1032E00040F3AD849848159042462146A846DDE952
:1032F000074A1027054604E00832103E102E40F31E
:10330000CA8101331031072BC2E90057CDE93331AF
:10331000F2DD32AA2146504600F042FD00287FF43B
:1033200038AFDDE9333135AAE7E719F400721CBF85
:10333000DBB202463BE619F400721CBFDBB2024668
:10334000FFF7F9B9099E0223CDE9003630AB0493AB
:103350002BAB039329AB02930898DDE9242302F0F9
:10336000D7FA0E9B672B054600F077810E9B472B03
:1033700000F073810E9B23F02007462F00EB06041C
:1033800005D10378302B00F0DB83299E3444DDE93E
:10339000240100220023FDF791FC002800F0CC81DD
:1033A00023465B1B1393299A1292472F00F05D81ED
:1033B000462F00F0E3820E99531E6129299300F0F5
:1033C0004184412940F05C8150210120002BB6BF8F
:1033D000C2F101032B222D22092B8DF8B0108DF89C
:1033E000B12040F377830DF1C704584E22461046B2
:1033F000A6FB0312D20802EB8201A3EB410130319C
:1034000000F8011C19466329134600F1FF32EEDC77
:10341000303302F8013C831EA34280F00C840DF18E
:10342000B10213F8011B02F8011FA342F9D15EABF0
:10343000181AA0F1AD031C93139B1C9A012B03EBEC
:10344000020B40F37883189B9B44069B23F4806314
:1034500043F480792BEAEB720023149306921093C5
:1034600012931F9B002B40F00F819DF89F20099322
:10347000FFF728B8139BABEB0A065D1BAE42A8BF53
:103480002E4618E443F3C01211465BB2FFF7D0B8E2
:103490000D9B0A9A1B681A80FFF7BAB9079932AADE
:1034A000584600F07DFC00283EF422AFFEF736BF00
:1034B00028460D96FCF784FE8346FFF79CB85823F8
:1034C0008DF8A13030238DF8A03049F00203069327
:1034D000099B632B00F3F68200230C9345AD49F45E
:1034E00081731593179B002BC0F2008200231F935A
:1034F000DDE91634CDE924340E9B612B7FF41AAD3F
:1035000029AADDE9240103F0F7F900224FF07F53E7
:10351000FDF76CF902460B46CDE91023002200238B
:10352000FDF7CCFB002840F0F882094B1293099B71
:10353000CDF84C8003F1FF392E461495DDF848B0E4
:103540004D46DDE910890BE0107D0008CDCCCCCCD8
:10355000DC7C000800220023FDF7B0FBF0B93D46FB
:10356000A94B002240464946FDF740F9894680466E
:10357000FDF7ECFB0446FDF7CFF802460B4640464C
:103580004946FCF77BFF1BF804306A1CB24605F184
:10359000FF3706F8013B80468946DBD1CB465746CC
:1035A000C2469A4BDDF84C80002250465946A94647
:1035B000149DFDF7ABFB002840F06482934B50460E
:1035C00059460022FDF77AFB10B1E30700F15A8259
:1035D000B9F1000FC0F2708209F1010333443022C7
:1035E00006F8012BB342FBD15B1B13930E9B23F018
:1035F0002007D8E6DDE9071032AA00F0D1FB002849
:103600007FF42AAADDE93334299A0DF1D408FFF7B3
:1036100034BA886DFEF7E8F9FEF73CBE099B5E1CE4
:10362000022391E6099E03238EE629AADDE92401FF
:1036300003F062F900224FF07F53FDF7D7F80246FE
:103640000B46CDE9102300220023FDF737FB0028AD
:1036500040F063826E4B129369E7069BDF0700F12F
:10366000E481309B299A5B1B1393D31C129202DBDB
:10367000099B934244DA0E9B023B0E93531E2993FF
:103680009DF838100020A1E62D2200238DF89F2000
:103690000993FEF71ABF45460C4690460133159A2A
:1036A000C8F800203444072BCDE93334C8F804604F
:1036B00000F3268208F10808FFF7C9BA2D228DF819
:1036C0009F20FEF7EEBE0023089800972BAA19460C
:1036D00002F078F8B0F1FF3F834600F009822B95A5
:1036E0009DE51E9B1D99ED1A1A46284603F038FCED
:1036F00098F801300BB108F101084FF0000CF7E425
:10370000139B934200F39481069BDC0740F14A82AD
:10371000189B02EB030B069B580502D5002A00F309
:103720004A822BEAEB730693DDF8549067230E93DD
:1037300000231493109394E6309BA342BFF431AE60
:1037400030215A1C30921970309B9C42F9D828E6DF
:10375000109BCDF824B0CDF83890424621462D4F2D
:10376000DDF85090DDF87880DDF820B05446DDF8C3
:103770006CA07BB3B9F1000F00F0858009F1FF392F
:1037800033981D9B013041440728C2E90038349129
:1037900033906DDC0832099B9AF800001E1B8642AC
:1037A000A8BF0646002E0BDD3398013031440728B0
:1037B000C2E90046349133906BDC9AF8000008327D
:1037C000002EACBF851B0546002D14DC0444109B65
:1037D000002BCFD1B9F1000FD0D1DDF824B0CDF856
:1037E0006CA0A246DA45DDF8389090460C4628BF1A
:1037F000DA46FFF733BA102D339840F31A82234686
:103800003E462C461D460CE0000030400000E03FE4
:10381000F07C0008107D0008103C102C02F108021A
:1038200016DD0130103110230728CDE93301176070
:103830005360F1DD079932AA584600F0B1FA00282A
:103840007EF466AD103C102CDDE9330135AAE8DCCE
:103850002B4625461C46013029440728CDE9330173
:10386000166055604BDC9AF8000008320444AEE75D
:10387000079932AA584600F093FA00287EF448AD22
:10388000349935AA87E7109B013B0AF1FF3A109360
:1038900076E7079932AA584600F082FA00287EF4AB
:1038A00037AD9AF80000349935AA89E79DF89F2032
:1038B0000D96CDF818B0CDF824B0CDF850B0CDF8B5
:1038C00040B0CDF848B0CDF830B0FEF7FBBDDDE933
:1038D000071032AA00F064FA00287FF4BDA8299AE4
:1038E000349C0DF1D408FFF7A3BA0C93DDE916342C
:1038F000249304F1004325932D231F93FCE507999E
:1039000032AA584600F04CFA00287EF401AD9AF82D
:103910000000349935AA044459E7DDE9071032AABA
:1039200000F03EFA00287FF497A8349C0DF1D408EB
:10393000FFF786B97823C3E5DDE9071032AA00F066
:103940002FFA00287FF488A8299D349C0DF1D40813
:10395000FFF79AB9AB491591FEF7EBBDDDE907100A
:1039600032AA00F01DFA00287FF476A8299D139B47
:10397000349C5D1B0DF1D408FFF79DB9069B12998D
:10398000099A03F00103002943EA020340F35D8131
:10399000002B40F009816623DDF848B00E93069BAA
:1039A0005A0500F10A812BEAEB73DDF85490069377
:1039B000BEE600220992FEF7CCBB079B5B6EDF07D9
:1039C00007D4079B9B899E0503D4079B986DFEF740
:1039D0000BF84FF0FF330A93FEF7ABBC56421032A0
:1039E000894A159234DAAA461027154604E008F1F0
:1039F0000808103E102E2ADD01331034072BC8E9C9
:103A00000057CDE93334F2DDDDE9071032AA00F0CA
:103A1000C7F900287FF420A8DDE933340DF1D4087C
:103A2000E7E700230C9345AD0BE4AC194727AEE460
:103A3000139B189A03EB020B129B002B40F3EE80B2
:103A400067230E93ABE76F4A1592FFF7CCB8554644
:103A50000133159AC8F800203444072BCDE93334DC
:103A6000C8F804607FF7F9A9DDE9071032AA00F071
:103A700097F900287EF4F0AFDDE933340DF1D40876
:103A8000FEF7FEBF129B3097D97B16F8012C8A42B5
:103A9000334609D1302003F8010C309B5A1E309276
:103AA00013F8012C9142F6D0392A0BBF129A013239
:103AB000927AD2B203F8012C334695E5524A159218
:103AC000FEF776BF0898591C01F0CAF9054678B18F
:103AD0000C9004E5002862D130228DF8B2200DF15F
:103AE000B302303302F8013B2CABD31A1C93A3E48E
:103AF000079AB2F90C3043F040039381FEF711BCF2
:103B0000DDE9071032AA00F04BF900287EF4A4AFDB
:103B1000349C0DF1D408FFF79AB83C4B3C4A0E99FF
:103B2000612918BF1A46012312922993FFE4062344
:103B30000993FFF7EFB9069BDE077FF586AC82E4B9
:103B4000DDE9240100220023FDF7B8F800287FF406
:103B50001CACC6F10106299618E4179B2D4D002BCD
:103B6000B4BF2D229DF89F202B4BB8BF8DF89F200E
:103B700029F08009FEF799BC099B06939B467323A5
:103B80009DF89F200D960990149010900E93FEF7CB
:103B900099BCDDF81890DDF824B0FFF740BB0DF1BB
:103BA000B2029EE79346B6E5189BCF183A446623C7
:103BB00093460E93F3E667230E931B990B78FF2B26
:103BC00063D00024129A204603E001300131FF2B1C
:103BD00008D0934206DAD21A4B78002BF5D10B7835
:103BE0000134F4E71B91129210901494DDE914391A
:103BF000109A13441E9A02FB03BB2BEAEB73069345
:103C00002FE400BF207D0008107D0008F07C000834
:103C1000DC7C0008D47C0008D87C0008C3F10103D8
:103C20009B442BEAEB7306936723DDF854900E93C5
:103C30007EE51C4E0FE602231C93FFF7FDBB194ADD
:103C400015922BE57021FFF7C0BBDDF8549033B916
:103C50004FF0010B6623CDF818B00E9368E5189B62
:103C6000DDF824B05F1CBB442BEAEB73069366239C
:103C70000E935DE50D9A63780C4652F8041B0D9285
:103C800041EAE1710991FEF763BA0023149310939E
:103C9000ACE7DDE9072B938943F040039381FEF7FE
:103CA00037BB00BF107D0008F0B51F468B89ADF211
:103CB0006C4D23F00203ADF80C304B6E1993CB8999
:103CC000ADF80E30CB6907934B6A09931AAB00939A
:103CD00004934FF48063154606460293059316A895
:103CE00000230C460693FDF779FE2A463B466946BB
:103CF0003046FEF7B5F9051E07DB6946304602F08F
:103D0000D1FD002818BF4FF0FF35BDF80C305B0621
:103D100003D5A38943F04003A3811698FDF760FE05
:103D200028460DF26C4DF0BD2DE9F84F4B6E9C040A
:103D300090462ED5936812684BB30D46064602F1A5
:103D4000080959E9022A5FEA9A0716D0A2F1040B82
:103D5000002401E0A7420ED05BF8041F2A4630463B
:103D600003F0C4F9431C04F10104F3D10023C8E9B2
:103D70000133BDE8F88FD8F808302AF0030AA3EB26
:103D80000A03C8F8083009F10809002BD9D100202E
:103D9000ECE7FDF7AFFF0023C8E90133BDE8F88F7A
:103DA00010B4946814B110BCFFF7BEBF2046546035
:103DB00010BC70472DE9F04FC7B016AF8346039192
:103DC00006920021082238461C460A93FDF778FD2A
:103DD000BBF1000F04D0DBF83430002B00F0BB86C1
:103DE000039A536EB2F90C20DB0702D4960540F11A
:103DF0009F85950407D403994B6E42F4005223F437
:103E000000538A814B66100740F1C980039B1B69F0
:103E1000002B00F0C48002F01A030A2B00F0CE80C1
:103E20000023CDE91B33CDE90E331DAADFF860A2D4
:103E30000D931A92914610930793069DDAF8E44089
:103E400001F06EFB2A46034614A900975846A04786
:103E5000002800F0D280C0F2C880149A252A0346B8
:103E600001D01D44EAE7069BEE1A044640F0C980E3
:103E700000234FF0FF316A788DF84B3008936C1CAB
:103E8000059102930134A2F120035A2B00F2028122
:103E9000DFE813F0030300010001FD02000100014F
:103EA00000016B000001000118022D030001230234
:103EB000130300010D035B005B005B005B005B0014
:103EC0005B005B005B005B00000100010001000182
:103ED00000010001000100010001CE015D020001AE
:103EE00000010001000100010001000100010001CA
:103EF00000012902000100010001A6010001760273
:103F0000000100018E050001000100010001000117
:103F100000010001000100010001CE01F3010001D8
:103F200000010001C402F3017F000001320300011F
:103F3000EE028B05CD027F000001A6017D00880501
:103F400000010001B10500017D00A2F13003002253
:103F5000114614F8012B01EB810103EB4101A2F1A1
:103F60003003092BF5D908918DE7584601F0DEFAA8
:103F7000436810931846FCF723F90F9005465846FE
:103F800001F0D4FA83680E93002D40F0E584227886
:103F900078E7029B227843F02003029372E7039DA7
:103FA0005846294601F034FB002840F0A686B5F9B2
:103FB0000C2002F01A030A2B7FF432AF0399B1F9F7
:103FC0000E30002BFFF62CAF4B6EDB0702D49705AB
:103FD00040F15E86069A03992346584600F0C0FEDB
:103FE0000790079847B0BDE8F08F082200213846B7
:103FF000FDF766FC01231D4420E7069BEE1A0446EC
:1040000012D0069B1C9AC9E900361B9B013332442F
:10401000072B1C921B9311DC09F10809079B334401
:104020000793002C7FF424AF1C9B002B40F050869C
:10403000039B0022B3F90C301B921CE0002A00F015
:104040002F8403991AAA5846FFF76EFE80B90DF126
:104050007409E3E703991AAA5846FFF765FE00289A
:1040600000F0A9800B9B1BB10B99584602F07AFE19
:10407000039BB3F90C30039A526ED10740F1A6802E
:104080005B0600F14686079847B0BDE8F08F00BF99
:10409000700500200694002AC6D000238DF84B300E
:1040A00001238DF8B420049309932DAC00230B93C6
:1040B0000593029B13F0020302D0049A0232049289
:1040C000DDE91B2C029D501C15F0840501460C9562
:1040D00005D1089D049EAD1B002D00F331839DF892
:1040E0004B0088B101220CF1010CC9F8042007290A
:1040F0000DF14B02CDE91B1CC9F8002000F3E18251
:104100000A4609F108090131EBB113AB0CF1020CBD
:10411000C9F8003007294FF00203CDE91B1CC9F88C
:10412000043040F3EC82BCF1000F00F0DA83039915
:104130001AAA5846FFF7F8FD002893D1DDE91B2C99
:104140000DF17409511C0C9B802B00F01382059B10
:1041500009981D1A002D00F36882099AC9F80040D9
:1041600002EB0C030729CDE91B13C9F8042040F327
:10417000FE81002B00F02B8303991AAA5846FFF703
:10418000D3FD00287FF46EAF1C9B0DF17409029AD9
:10419000500705D5089A0499541A002C00F322837D
:1041A000DDE9072104988142ACBF5218121807922A
:1041B000002B7FF44FAF00231B930B9B1BB11946C1
:1041C000584602F0CFFD0DF1740936E69A053FF529
:1041D00057AF039CA06DFDF707FCB4F90C304FE717
:1041E0000A9E069456F8044B00238DF84B30002CA1
:1041F00000F0C984532A00F02184029B13F01005BB
:1042000040F01C84059B5A1C00F04E851A46294636
:104210002046FCF745F80B90002800F03E85031B74
:10422000099323EAE37305950A9604930B958DE1B0
:104230000A9B0694432A03F1040503D0029BDE0681
:1042400040F1E4830822002118A8FDF739FB0A9BFE
:104250002DAC1A68214618AB584601F03BF90346CD
:104260000133099000F04185099B23EAE37304932D
:1042700000230A958DF84B3018E7029B06949C06A4
:104280006DD50A9B073323F0070319465A6851F886
:10429000083B0A911146002AC0F23781059A013283
:1042A00000F04081029A22F08002029253EA010259
:1042B00040F03881059B002B40F00885049309935A
:1042C00046AC41E10A9B53F8042B0892002A80F285
:1042D0002783089A0A9352420892029B227843F05D
:1042E00004030293CEE5029B069443F0100212F001
:1042F000200100F0E7820A9B073323F007031846EA
:10430000596850F8083B0A9022F480640294059C96
:10431000002001348DF84B005DD053EA010422F4F3
:10432000906240F01484029C0292059B002B4AD1BB
:10433000002840F0F08214F00102099200F0F482AB
:1043400030238DF8173104920DF21714FCE0029B14
:10435000069443F010030293029B9C0691D40A9AA0
:1043600052F8043B0A92029AD00600F1F282029AB5
:10437000510640F1EA8243F3C0310A461BB28AE794
:10438000029B069443F0100414F0200100F08B828D
:104390000A9B073323F007031A46596852F8083B73
:1043A0000A9200228DF84B20059A013200F0D18349
:1043B00024F08002029253EA010240F0B380059B90
:1043C0000120002BB4D0012800F0808400230228B3
:1043D000194600F0998146AC03F00702DB0843EA76
:1043E0004173C908303253EA0105204604F8012D13
:1043F000F2D1029BDD0740F19581302A00F09281D5
:104400003023059A04F8013C023846AB1B1A9A4245
:10441000B8BF1A4609930446049295E02278029B9D
:10442000682A00F09D8343F0400302932AE5029B33
:104430000A9A069443F00203029352F8043B0A924C
:1044400047F63002ADF84C20BB4A0D920021002205
:104450008DF84B20059A013200F05681029C53EAF8
:10446000010024F08002029240F04E8102205CE7BD
:10447000029B06949E0640F17E820A9B079A1B6867
:104480001A60D2175A600A9B04330A93D5E4029B40
:10449000227843F001030293F4E49DF84B30227834
:1044A000002B7FF4EFAC20238DF84B30EAE4029B25
:1044B000227843F080030293E4E4214611F8012BB3
:1044C0002A2A00F03384A2F13003092B0C4600F2B3
:1044D000F6830022114614F8012B01EB810103EB56
:1044E0004101A2F13003092BF5D90591CBE42B232F
:1044F00022788DF84B30C5E42278029B6C2A00F0BC
:10450000368343F010030293BCE42D228DF84B2038
:10451000059A5B4261EB4101013203D0029A22F01D
:10452000800202920A2B71F1000280F0BD823033CA
:10453000DBB28DF81731059B012BB8BF0123049323
:10454000012309930DF2171400230B939DF84B30B0
:10455000002B3FF4AEAD049B01330493A9E5099B06
:104560001D9401221E931C931B920DF1740909F1F5
:1045700008090CE6089B04981D1A002D7FF7E7AD8B
:10458000102D40F3CB83DFF8B48143461026A046BC
:1045900061461C4607E002F1020C09F108090246D7
:1045A000103D102D1ADD501C10310728C9E90046B6
:1045B000CDE91B01EFDD1AAA00297CD003995846EA
:1045C0000DF17409FFF7B0FB00287FF44BADDDE976
:1045D0001B21103D102D02F1010CE4DC2346604646
:1045E00044468C469846AC440728CDE91B0CC9F8D4
:1045F0000080C9F8045040F3A381BCF1000F00F023
:10460000278303991AAA5846FFF78EFB00287FF4E8
:1046100029AD059B0998DDE91B2C1D1A002D02F11F
:1046200001010DF174097FF798AD102DDFF80C81B1
:104630002DDD2B461026254660461C4607E002F17C
:10464000020C09F108090A46103C102C1ADD511C15
:104650003A4B10300729C9E90036CDE91B10EEDDD1
:104660001AAA10B3039958460DF17409FFF75CFBC1
:1046700000287FF4F7ACDDE91B20103C102C02F180
:10468000010CE4DC234661462C4684461D46AC44BE
:104690000729CDE91B1CC9F80080C9F8045000F3B4
:1046A000EC8009F10809013157E54FF0010C024691
:1046B0000DF17409C8E74FF0010C0A460DF17409B9
:1046C0006EE7BCF1000F0FD0039911931AAA584658
:1046D000FFF72AFB00287FF4C5ACDDE91B2C119BFA
:1046E000511C0DF174090FE5002B00F055810223D8
:1046F0001E939C4613AB1D9301210DF174090A46CC
:1047000009F1080901311EE50D9846AC03F00F02CE
:104710001B09825C04F8012D43EA0173090953EA7D
:104720000102F3D1059A46AB1B1B9A42B8BF1A4649
:104730000993049208E700BFDC7C0008307D000884
:10474000102D40F3C082AE4E119349464FF0100831
:10475000A1463446664607E002F1020E08310246E1
:10476000103D102D18DD501C10360728C1E90048F7
:10477000CDE91B06F0DD03991AAA584616B3FFF7D8
:10478000D3FA00287FF46EACDDE91B26103D102D16
:1047900002F1010E1DA9E6DC119BB44626464C46EB
:1047A0008946AC44BEF1070FCDE91BECC9F80060A7
:1047B000C9F8045000F39A8009F108090EF10101CB
:1047C00072468CE432464FF0010E1DA9C8E7029AEA
:1047D0001B93540748D5089A0499541A002C43DDBA
:1047E0000DF17409102C1B9940F37C82844EDDF886
:1047F0000C80102506E0881C09F108091146103CC0
:10480000102C19DD4A1C1033072AC9E90065CDE9CF
:104810001B23F0DD1AAA13B341465846FFF784FA6A
:1048200000287FF41FACDDE91B13103C102C01F1B4
:1048300001000DF17409E5DC23440728C9E900648F
:10484000CDE91B037FF7ACAC73B103991AAA5846A4
:10485000FFF76AFA00287FF405AC1C9BA0E4012056
:1048600019460DF17409CAE7DDE9073204998A4255
:10487000ACBF9B185B1807939DE4BCF1000F3FF49D
:104880006EAE03991AAA5846FFF74EFA00287FF435
:10489000E9AB1B99DDF870C001310DF174095CE4DE
:1048A0001B92FFF7D4BB0A9A52F8043B0A9214F009
:1048B00010027FF476AD14F0400000F06E819BB2E0
:1048C00011466EE50A9850F8043B0A9012F0100069
:1048D0007FF41AAD12F0400400F067819BB20146EC
:1048E00012E5012162460DF174092CE4BCF1000FC0
:1048F00000F09580039911931AAA5846FFF714FA0D
:1049000000287FF4AFABDDE91B2C119B511C0DF18E
:104910007409FFF7E4BB059B0493099346AC13E6C7
:1049200022780A93FFF7AEBA059B049346AC0BE6D8
:10493000039DA86DFDF756F8B5F90C20FFF759BA9D
:1049400009F10809411C024601E4029A920500F1AE
:104950008581D9170A469EE40E9B2278002B3FF4EE
:1049600091AA1B78002B3FF48DAA029B43F480632D
:104970000293FFF787BA029BDD0600F1FF80029BDE
:104980005C0600F17781029B980540F1F7800A9B55
:10499000079A1B681A7076E5624601210DF17409C9
:1049A000FFF7D1BB0694029CEEE4029A06949EE4C3
:1049B000144B06940D93029B13F0200164D00A9BC4
:1049C000073323F007031846596850F8083B0A904C
:1049D000029CE6070AD553EA010007D08DF84D2066
:1049E00044F00202029230228DF84C20029A22F406
:1049F000806202922BE5044B06940D93DBE700BF27
:104A0000407D0008F07C0008DC7C00080A9B1B68E5
:104A10008DF8B4300123049309932DAC28E49DF85C
:104A20004B20002A00F0208101210DF14B021E9144
:104A30001D920DF174098C46FFF762BB082200211C
:104A400018A81594FCF73CFFDDF81480B8F1FF3F7F
:104A500000F0B980002504942C460CE02DA958469E
:104A600000F038FD411C204400F03F81404508DC47
:104A700000F058810446159A525918AB0435002AA3
:104A8000ECD10994049CACE00A9850F8043B0A90DD
:104A9000029810F010009BD1029911F0400400F030
:104AA0008B809BB2014693E7029ACDF8109046ACFA
:104AB00002F48062A146CDF824B0A54EDDF838B0EE
:104AC0004FF0000C144605E00A2B71F1000136D3BB
:104AD000434629465A1842F10002A6FB020525F07A
:104AE000030000EB9500121A981A4FF0CC3561F1D3
:104AF000000E05FB00F506FB0E55A0FB06800544E5
:104B000008F0010E0520AEFB000E80184FEA580891
:104B1000303009F8010C48EAC5780CF1010C09F1B4
:104B2000FF396D08002CCFD09BF800206245CBD117
:104B3000BCF1FF0FC8D00A2B71F1000172D2CDF881
:104B400038B04C46DDF824B0DDF81090EAE502926A
:104B500041E40294E6E45846FDF75AF8FFF740B9FD
:104B600043F40073627802930134FFF78BB943F08A
:104B70002003627802930134FFF784B90A9B079AF5
:104B80001B681A607FE4059B724C062B28BF062326
:104B9000CDE909360493FFF789BA14F400713FF4A4
:104BA00000ACDBB20146FFF7FCBB12F400711CBF86
:104BB000DBB22146FFF7A8BB029911F400711CBFBC
:104BC000DBB2214604E718AB00930023194615AA6F
:104BD000584600F0F7FD03460133099000F0858048
:104BE0001594099B73B3632B49DC00230B932DAC05
:104BF0000822002118A8FCF763FE099D18AB00935A
:104C000015AA2B462146584600F0DCFD854240F0AF
:104C10009880099A0A960023A354059322EAE27326
:104C2000049393E40F9B1099A9EB03091A46484695
:104C300002F096F99BF801300BB10BF1010B4FF02C
:104C4000000C45E7099B0A96CDE904330B937DE4FC
:104C5000012162460DF17409FFF779BA43F3C011DF
:104C60000A465BB2FFF717BB624601210DF17409DA
:104C7000FFF74ABA0A9B079A1B681A8003E4591C7B
:104C8000584600F0EDF8044600282ED00B90AFE710
:104C9000886DFCF7A9FEFFF79DB9059B0493099366
:104CA0000B9B0A96059351E4204605950A96FBF75F
:104CB00087FA20EAE073099004930B9546E40023F9
:104CC0000593FFF7E0B8244E86466AE5302330E4CA
:104CD00003991AAA5846FFF727F800283FF4A8A915
:104CE000FFF7C6B91C4E481CA6E5039AB2F90C3072
:104CF00043F040039381FFF7BEB9039B5B6ED90776
:104D000007D4039B9B899A0503D4039B986DFCF7FA
:104D10006BFE4FF0FF330793FFF7B5B9DFF83C8028
:104D2000084660E4DDE9044309935AE70A9B627888
:104D30000C4653F8041B0A9341EAE1710591FFF711
:104D4000A1B8039A938943F040039381FFF78AB98E
:104D5000CDCCCCCC047D0008407D0008307D00081F
:104D6000F0B51F468B89ADF26C4D23F00203ADF810
:104D70000C304B6E1993CB89ADF80E30CB6907938D
:104D80004B6A09931AAB009304934FF48063154662
:104D900006460293059316A800230C460693FCF7DB
:104DA0001DFE2A463B4669463046FFF703F8051EBE
:104DB00007DB6946304601F075FD002818BF4FF04B
:104DC000FF35BDF80C305B0603D5A38943F04003E3
:104DD000A3811698FCF704FE28460DF26C4DF0BD39
:104DE0002DE9F8431B4D0646286898460F46914624
:104DF000FCF7F8FD184B1C681CB3286865681F2D6C
:104E000022DC4EB96B1C0235636044F82570FCF758
:104E1000EBFD0020BDE8F88304EB85010123C1F818
:104E20008890D4F88821AB401A43022EC4F8882118
:104E3000C1F80881E6D1D4F88C211A43C4F88C213A
:104E4000E0E7064C1C60D8E7FCF7CEFD4FF0FF30E2
:104E5000E0E700BF24000020280B0020740C002095
:104E60002DE9F04F01F10B05162D85B0064624D82B
:104E7000102900F2B18000F099FC102518234FF0A2
:104E8000020CBA4F3B44A3F108025C68944200F064
:104E900022816368E268A16823F00303CA602344A7
:104EA000304691605A6842F001025A60083400F0BE
:104EB00083FC204605B0BDE8F08F35F0070500F112
:104EC0008B80A94200F2888000F070FCB5F5FC7F71
:104ED000C0F073816B0A00F08380042B00F2228102
:104EE000AB0903F1390C03F1380E4FEACC039F4FA5
:104EF0003B44A3F108005C68A04207D10DE0002A02
:104F0000E16880F2E280884207D00C46636823F0B3
:104F100003035A1B0F2AF2DDF446DFF854823C6982
:104F2000444500F0BF80636823F00309A9EB050343
:104F30000F2B00F34781002BC7E9048880F23181F1
:104F4000B9F5007FD7F804E080F0CC804FEAD901B2
:104F500001314FEA5919012303FA09F357F83120B7
:104F6000A2604EEA030E07EBC103083BE360C7F8FB
:104F700004E047F83140D4604FEAAC030120984088
:104F8000704534D810EA0E0F07D12CF0030C400006
:104F900010EA0E0F0CF1040CF9D007EBCC0A5246C4
:104FA000E146D1680EE04B6823F00303A3EB050E46
:104FB000BEF10F0F0C46C96800F3C180BEF1000FAF
:104FC00080F2E2808A42EED109F1010919F0030F63
:104FD00002F10802E5D121E10C233360002468E7E7
:104FE0004FF400734FF0400C4FF03F0E7FE7BC686A
:104FF000636823F00309A94503D3A9EB05030F2B2D
:1050000053DC5C4BDFF870B11B68082003F110081B
:1050100000F0F0FADBF8003001900133A84404EB13
:10502000090205D008F1FF388044434203EA08082A
:1050300041463046029202F097F8B0F1FF3F029AE3
:10504000824600F0DC80824200F2D7804B4B01990F
:105050001868404401F1FF311860844640F0FC803C
:105060001AEA010F40F0F880D7F808A0C84448F0C9
:105070000102CAF80420424B1968814238BF186007
:10508000404B1968814238BF1860544622F003082B
:10509000A845A8EB050301D30F2B06DC304600F032
:1050A0008BFB9BE7D7F804E066E7621943F0010346
:1050B00045F0010565603046BA60536000F07CFB46
:1050C0000834204605B0BDE8F08FA2682344D160C3
:1050D00030468A60E6E6DC68A3427FF4DAAE0CF183
:1050E000020C1AE7B9F5206F4FEA59227ED3142A31
:1050F00000F2158102F15C03DB005B32F918FB580A
:105100000839994203D1F0E09B68994204D05A686B
:1051100022F003024A45F7D8D968C4E902318C600D
:10512000DC6029E7142B6DD9542B00F201812B0B85
:1051300003F16F0C03F16E0E4FEACC03D7E6304655
:10514000A668621945F001056560F1608E604EF059
:105150000101C7E90422C2F80880C2F80C8051603E
:1051600044F803E000F028FB0834A2E668010020C0
:1051700070010020340E00205C010020040E00208D
:10518000300E00202C0E0020234430465A6842F096
:1051900001025A6054F8083FD9608B6000F00CFBA4
:1051A00087E6A1443046D9F8043043F00103C9F83A
:1051B0000430083400F000FB7BE64FEAD50C05F123
:1051C00008035EE6621943F0010145F001056560E0
:1051D0003046C7E90422C2F80880C2F80C8051604A
:1051E00044F8093000F0E8FA083462E64FEA991210
:1051F00002F13903DB00383280E7BC4224D0BC68BE
:10520000626843E703F15C0C03F15B0E4FEACC03E9
:105210006DE65AF80839534540F0D8801CF0030F6A
:105220000CF1FF3CF5D17B6823EA00037B60400072
:1052300098423FF6DCAE18B9D9E6400009F10409FE
:105240001842FAD0CC46A8E6614B0199186808EBE1
:10525000000C0139C3F800C0DBF8000001301BBFAF
:10526000AAEB02026244CBF800A01A601AF007020F
:10527000CDE9022342D0C2F10802019B9244D044FE
:10528000134408EA01001A1A02EA010B5946304693
:1052900001F06AFF421C039B7AD0A0EB0A0000EBEE
:1052A0000B081868C7F808A048F001025844BC422F
:1052B000CAF8042018603FF4DEAEB9F10F0F42D9EE
:1052C0006168A9F10C0222F0070201F0010111430B
:1052D0006160A1184FF0050C0F2AC1F804C0C1F895
:1052E00008C04AD8DAF80420C5E69210012000FA76
:1052F00002F24EEA020EC7F804E00EE7019B0AEB49
:1053000008020A409A1A02EA010B5946304601F097
:105310002BFF431C039BC0D1DDF808B0C1E7542A22
:1053200015D84FEA193202F16F03DB006E32E5E661
:10533000B3F5AA7F15D8EB0B03F1780C03F1770EC8
:105340004FEACC03D3E50123CAF80430A6E6B2F550
:10535000AA7F25D84FEAD93202F17803DB007732F1
:10536000CCE640F25452934225D8AB0C03F17D0CAD
:1053700003F17C0E4FEACC03B9E5304604F1080195
:10538000019301F0EFFC019BD7F808A01868A9E78A
:10539000029A083A9044A8EB0A084FF0000B80E705
:1053A00040F254539A420DD84FEA994202F17D03DC
:1053B000DB007C32A2E64FF47E734FF07F0C4FF09F
:1053C0007E0E94E54FF47E737E2297E67B682EE78F
:1053D000040E002088420ED98B1883420BD900EBB3
:1053E000020C002A6ED0624613F801CD02F801CDFE
:1053F0009942F9D170470F2A0FD8034602F1FF3CBA
:10540000002A5FD00CF1010C013B8C4411F8012BF8
:1054100003F8012F6145F9D1704740EA01039B076A
:1054200051D1A2F1100370B501F1200C23F00F054A
:1054300001F1100E00F11004AC441B095EF8105C81
:1054400044F8105C5EF80C5C44F80C5C5EF8085C98
:1054500044F8085C5EF8045C44F8045C0EF1100E3D
:10546000E64504F11004E9D1013312F00C0F01EB11
:10547000031102F00F0400EB031328D0043C24F0C6
:1054800003064FEA940C1E441C1F8E465EF8045B14
:1054900044F8045FB442F9D10CF1010402F00302B4
:1054A00003EB840301EB840102F1FF3C4AB10CF1F0
:1054B000010C013B8C4411F8012B03F8012F6145CD
:1054C000F9D170BD704702F1FF3C03469AE72246CE
:1054D000EAE700BF70B5054684B05BB11C460F4BD0
:1054E000D3F8E060234669B12846B047431C0FD08B
:1054F00004B070BD094B00F58274D3F8E060234618
:105500000029F1D10A46284601A9B047431CEFD132
:1055100000228A2322602B6004B070BD7005002039
:10552000014B93F828017047700500200048704730
:105530006006002070B500293FD005460C4610B12A
:10554000436B002B3CD0636EB4F90C20DE0732D4E1
:10555000900538D52146284601F010F9E36A064641
:1055600033B1E169284698470028B8BF4FF0FF36AD
:10557000A3891A0639D4216B41B104F14003994241
:1055800002D0284601F0EEFB00232363616C21B1B9
:10559000284601F0E7FB00236364FCF757FB636ECA
:1055A0000022DB07A2811CD5A06DFCF719FAFCF7DD
:1055B00053FB304670BD002ACCD10026304670BD6A
:1055C000FCF726FBBFE7A06DFCF70CFAB4F90C3032
:1055D000002BBFD1636ED907EFD4A06DFCF704FA9E
:1055E000EBE7A06DFCF700FADEE72169284601F041
:1055F000B9FBC0E7082802D14FF48050704708B5C6
:10560000FCF74EF9162303604FF0FF3008BD00BFD2
:1056100038B52E4B1B6805460C4613B15A6B002A51
:105620004BD0B4F90C3018071CD5226922B313F003
:10563000010107D0616900204942A060A1613AB12F
:10564000002038BD980758BF6169A160002AF7D1D2
:10565000190658BF1046F4D543F04003A3814FF01C
:10566000FF3038BDD9062CD55A0712D4226943F031
:105670000803A381002ADAD103F42071B1F5007F79
:10568000D5D02146284600F023F8B4F90C30226921
:10569000CDE7216B51B104F14002914204D028467C
:1056A00001F060FBB4F90C30002222632269002172
:1056B000C4E9002123F02403D9E71846FCF7A8FA2F
:1056C000AFE709222A6043F04003C7E72800002023
:1056D0002DE9F041B1F90C300C46990796B008D588
:1056E00004F143030122C4E90432236016B0BDE88B
:1056F000F081B4F90E100029064626DB6A4601F057
:1057000063FC00281FDB019D05F47045A5F50055DD
:10571000B5FA85F54FF480686D094FF4006741468E
:105720003046FFF79DFBE8B1B4F90C30C4F81480A3
:1057300043F0800320602061A3813DBB3B43A381F4
:1057400016B0BDE8F081B4F90C3013F0800519D023
:105750004FF040080025414630462F46FFF780FBBA
:105760000028E1D1B4F90C309A05BFD423F003032B
:1057700004F1430243F002030121C4E90421A3819F
:105780002260B3E74FF480682F46C8E7B4F90E10E3
:10579000304601F02FFC10B9B4F90C30CEE7A389E4
:1057A00023F0030343F001031BB2C7E70148FCF7F2
:1057B00019B900BF2C0B00200148FCF715B900BF38
:1057C0002C0B002000B583B0DDF810C0CDE9003C03
:1057D0004FF0FF3302F0CAF903B05DF804FB00BFDD
:1057E0002DE9F04F03690C69A34283B0C0F28A80AF
:1057F000013C01F1140500F1140855F8243058F863
:10580000242001339A428E4681464FEA840105EBFB
:10581000840708EB840AB2FBF3F63AD3CDE900150E
:105820000022AC46404613465CF8041B05681FFA8C
:1058300081FB06FB0B22090C4FEA124B06FB01BB56
:1058400092B2A9B2891A19441FFA8BF3C3EB214310
:1058500003EB154389B241EA0341674540F8041B55
:105860004FEA1B424FEA2343DED2DDE9001558F828
:10587000013073B9AAF1040AD04504D307E0D0453A
:1058800004F1FF3403D25AF80439002BF7D0C9F8D9
:1058900010407146484601F08DFF00282EDB41463E
:1058A000002255F8040BD1F800C01FFA80FE1FFA41
:1058B0008CF3A3EB0E031344020CC2EB234202EB66
:1058C0001C429BB243EA0243AF4241F8043B4FEA19
:1058D0002242E6D258F8242008EB84036AB9043B3C
:1058E000984504D307E0984504F1FF3403D253F8F8
:1058F0000429002AF7D0C9F810400136304603B019
:10590000BDE8F08F002003B0BDE8F08F000000007C
:105910002DE9F04F816B9FB016461F46CDE9046715
:105920002B9D039049B1C26B4A600123934004460A
:105930008B6001F0DDFC0023A363B7F10009B4BF65
:10594000012300232B60764BBCBF29F00049CDF822
:10595000149033EA090300F0AA80DDE90434002240
:10596000184621460023CDE90801FBF7A7F9804638
:1059700068B12A9A012313602C9B13B12C9A694BAE
:105980001360694B0A930A981FB0BDE8F08F1CABF7
:1059900001931DAB00930398DDE9082301F0DCFFC0
:1059A0005FEA1955824640F09880DDE91C85454440
:1059B00005F23243202B40F38383C3F1400309FAFD
:1059C00003F905F2124326FA03F349EA0300FAF752
:1059D00093FE0123013DA1F1F8711193534B002275
:1059E000FAF74CFD48A3D3E90023FAF7FFFE48A3DA
:1059F000D3E90023FAF744FD064628460F46FAF796
:105A00008BFE45A3D3E90023FAF7F0FE02460B46CE
:105A100030463946FAF734FD06460F46FBF796F94D
:105A200000228346002330463946FBF751F900280F
:105A300040F01A83A8EB0508BBF1160F08F1FF34FC
:105A400000F28B813A4D05EBCB05D5E90023DDE96A
:105A50000801FBF73DF9002870D00023002C0BF162
:105A6000FF3B1093C0F27E8100230B93BBF1000F2C
:105A70006ADA0B9BA3EB0B030B93CBF10003CDE98D
:105A80000EB3289B092B4FF0000B65D8052B40F374
:105A90001C83043B28930025289B023B032B00F228
:105AA0002386DFE813F060045D04540438042A9A66
:105AB000C9F3130942F20F7359EA060913601CD1A6
:105AC0002C9B002B00F02B861A4B0A9308332C9A40
:105AD0000A9813601FB0BDE8F08FDDE90812C2F329
:105AE0001303084643F07F51CDF84480A5F2FF35FB
:105AF000DDF8708041F4401170E72C9B002B40F0E2
:105B0000E7830D4B0A933EE761436F63A787D23F5C
