:020000040800F2
:1000000000A000206D020008510200085302000801
:1000100055020008570200085902000800000000BD
:100020000000000000000000000000005B0200086B
:100030005D020008000000005F0200086102000885
:10004000BD020008BD020008BD020008BD02000894
:10005000BD020008BD02000839020008BD02000808
:10006000BD020008BD020008BD020008BD02000874
:10007000BD020008BD020008BD020008BD02000864
:10008000BD020008BD020008BD020008BD02000854
:10009000BD020008BD020008BD020008BD02000844
:1000A000BD020008BD020008BD020008BD02000834
:1000B000BD020008BD020008BD020008BD02000824
:1000C000BD020008BD020008BD020008BD02000814
:1000D000BD020008BD020008BD020008BD02000804
:1000E000BD020008BD020008BD020008BD020008F4
:1000F000BD020008BD020008BD020008BD020008E4
:10010000000000000000000000000000BD02000828
:10011000BD020008BD020008BD020008BD020008C3
:10012000BD020008BD020008BD020008BD020008B3
:10013000BD020008BD020008000000000000000031
:10014000BD020008BD020008BD020008000000005A
:10015000000000000000000000000000000000009F
:100160000000000000000000BD020008BD02000801
:10017000BD020008000000000000000000000000B8
:0801800000000000BD020008B0
:1001880010B5054C237833B9044B13B10448AFF3C9
:1001980000800123237010BD3404002000000000FB
:1001A800BC07000808B5034B1BB103490348AFF36C
:1001B800008008BD0000000038040020BC070008CB
:1001C80000B587B000240394049405940094019426
:1001D8000294164803900B238DF8103001258DF8F2
:1001E800115002268DF81260294600F065F803A820
:1001F80000F0DEF84FF0904000908DF804400523A1
:100208008DF805308DF806608DF80760294600F0F6
:1002180053F8684600F0CCF80C21062000F00CFAE0
:100228002946062000F0A6F9FEE700BF00100048A6
:1002380008B5002000F010FA0B21024800F094F9EC
:1002480008BD00BF00100048FEE7FEE7FEE7FEE736
:10025800FEE770477047704708B500F00BFA08BD15
:1002680070470000DFF834D0FFF7FAFF0C480D495B
:100278000D4A002302E0D458C4500433C4188C42F9
:10028800F9D30A4A0A4C002301E013600432A2425F
:10029800FBD300F0FBF9FFF793FFFEE700A0002077
:1002A8000000002034040020E40700083404002083
:1002B80058040020FEE70000012912D0B0F1904F49
:1002C80045D0354B984248D0344B98424BD0344BAC
:1002D80098424ED0334B984251D0334B984254D029
:1002E8007047B0F1904F14D02B4B984217D02B4B3E
:1002F80098421AD02A4B98421DD02A4B984220D0B7
:10030800294B9842ECD1294A536943F4800353613D
:100318007047264A536943F4003353617047234AB0
:10032800536943F4802353617047204A536943F467
:100338000023536170471D4A536943F48013536186
:1003480070471A4A536943F4001353617047174AB8
:10035800536923F4003353617047144A536923F4F3
:10036800802353617047114A536923F40023536172
:1003780070470E4A536923F48013536170470B4A40
:10038800536923F4001353617047084A536923F4EF
:1003980080035361A4E700BF000400480008004838
:1003A800000C0048001000480014004800100240EB
:1003B80038B5044601210068FFF77EFF6379022BF8
:1003C8000ED825796A009340206802680B21A9405D
:1003D80022EA0102026021680A6813430B6066E0A2
:1003E800042B11D0052B3AD0062B1BD15B4BD968B7
:1003F8002079012202FA00F00143D9609968207936
:1004080082400A439A600DE0544BD9682079012252
:1004180002FA00F00143D96099682079824021EA04
:1004280002029A602279930802F003022168B1F16E
:10043800904F25D04A4881426FD000F580608142B4
:100448006DD000F5806081426BD000F580608142FC
:1004580069D000F58060814210D0002011E03F4B48
:1004680099682079012202FA00F001439960D9685D
:100478002079824021EA0202DA60D3E7052000E011
:100488000020384DA96941F00101A96102EB42023F
:1004980000FA02F29B0003F1804303F580335A60AF
:1004A8002E490B6820790122824013430B60A17901
:1004B8002279530099402568A8680B2303FA02F2B1
:1004C80020EA0202AA60206882680A438260E27910
:1004D80094F804C04FEA4C018A402068C16803FAC6
:1004E8000CF321EA0303C3602168CB681343CB6094
:1004F800E37994F804C003FA0CF220680368012138
:1005080001FA0CF123EA0103036021684B681343E5
:100518004B606379022B08D038BD0120B1E7022077
:10052800AFE70320ADE70420ABE72379DA0803F04F
:1005380007032568083255F822109B000F209840C1
:1005480021EA000145F82210256855F82210607A42
:1005580000FA03F30B4345F82230DDE700040140BD
:100568000004004800100240436901228A405340B9
:100578004361704701290CD01F283AD84FF0E02179
:10058800D1F88031012202FA00F01843C1F8800145
:1005980070471F280AD84FF0E021D1F80031012216
:1005A80002FA00F01843C1F800017047A0F12003D7
:1005B800DBB21F2B0BD84FF0E022D2F8043100F049
:1005C8001F01012088401843C2F804017047A0F1B8
:1005D8004003DBB21F2B2ED84FF0E021D1F80831B1
:1005E80000F03F00012202FA00F00343C1F808318D
:1005F8007047A0F12003DBB21F2B0BD84FF0E0228D
:10060800D2F8843100F01F01012088401843C2F855
:1006180084017047A0F14003DBB21F2B0BD84FF0C9
:10062800E021D1F8883100F03F00012202FA00F001
:100638001843C1F88801704700F00303DB00043356
:1006480000F0FC0000F1604000F56440026801FA27
:1006580003F31A4302607047054B5A69012303FAF2
:1006680000F0024203D0024B5A69104358617047A8
:1006780000040140034A1168034B1B780B441360C4
:10068800704700BF500400200000002070B50D4ED8
:100698000D4D761BB61006D0002455F8043B0134E6
:1006A8009847A642F9D1094E094D761B00F082F809
:1006B800B61006D0002455F8043B01349847A642EA
:1006C800F9D170BDD8070008D8070008E00700086E
:1006D800D8070008024B13B1024800F005B870476C
:1006E80000000000FD060008002301461A461846CF
:1006F80000F01AB838B5084B084D5B1B9C1007D0A2
:10070800043B1D44013C55F804399847002CF9D1A5
:10071800BDE8384000F054B8E4070008E0070008D6
:10072800704700BF704700BF2DE9F047DFF87CA095
:100738000646DAF8000098460F469146FFF7F0FFA4
:100748001B4B1B68D3F8484124B365681F2D26DC72
:100758005EB96B1C0235DAF80000636044F8257056
:10076800FFF7E0FF0020BDE8F08704EB85010123D7
:10077800C1F88890D4F88821AB401A43022EC4F8F7
:100788008821C1F80881E4D1D4F88C211343C4F836
:100798008C31DEE703F5A674C3F84841D5E7DAF8EB
:1007A8000000FFF7BFFF4FF0FF30DCE73004002008
:1007B800D4070008F8B500BFF8BC08BC9E467047CF
:0C07C800F8B500BFF8BC08BC9E467047A6
:0407D40008000020F9
:0807D800DD060008AD01000878
:0407E0008901000883
:1007E400010000000000000000000000F4020020EE
:1007F4005C030020C403002000000000000000008F
:1008040000000000000000000000000000000000E4
:1008140000000000000000000000000000000000D4
:1008240000000000000000000000000000000000C4
:1008340000000000000000000000000000000000B4
:1008440000000000000000000000000000000000A4
:100854000000000000000000000000000000000094
:100864000000000000000000000000000000000084
:100874000000000000000000000000000000000074
:100884000000000000000000000000000000000064
:1008940001000000000000000E33CDAB34126DE601
:1008A400ECDE05000B00000000000000000000006A
:1008B4000000000000000000000000000000000034
:1008C4000000000000000000000000000000000024
:1008D4000000000000000000000000000000000014
:1008E4000000000000000000000000000000000004
:040C14005404002064
:040000050800026D80
:00000001FF
